:100000000A128A11E82FFF1B0D2883137F1883170C
:100010000008840A0319FF0A080000308A00040857
:10002000840A8207003466342B34F8342A346E3460
:100030000034113427347F3427347E34273401349C
:1000400000340A34003464340034E83403341034A7
:1000500027343734343430343034003437343434A3
:1000600030343234003437343434303434340034BF
:10007000373434343034383400343734343433346F
:1000800032340034373434343834363400340034C5
:1000900000340034003400344E346F34743420346F
:1000A00044347434633420346F3472342034423432
:1000B000613464340034203447344134543445349A
:1000C000203447344F344F344434003449344334BB
:1000D0002034543445345334543445345234003489
:1000E0004934433420344934533420344234413485
:1000F000443400344134753474346F342E342E3427
:100100002E34003449344334203420340034253430
:04011000643400341F
:10011E00F401F501701C942895289B287208F407A9
:10012E000318F50A7308F50701300310F20DF30DED
:10013E00FF3E031D9C2801300310F10CF00CFF3E16
:10014E00031DA32870087104031DAE28AF28912843
:10015E007508F1007408F0000800F50075080F39F5
:10016E00F3007508F039F4008312031307177408AF
:10017E00F10004300310F10CFF3E031DC12871087D
:10018E000A128A158B260A128A11831203138717F5
:10019E000430F2003D30F100F10BD328F20BD328DE
:1001AE00D8288312031387130430F2003D30F10078
:1001BE00F10BDF28F20BDF28E42873080A128A15E8
:1001CE008B260A128A118312031387170430F2004A
:1001DE003D30F100F10BF128F20BF128F6288312D5
:1001EE00031387130430F2003D30F100F10BFD28AC
:1001FE00F20BFD280229080083160313870107134B
:10020E00871300300A128A158B260A128A11C33000
:10021E00F500CD30F400F40B1229F50B1229043041
:10022E00F5003D30F400F40B1A29F50B1A291F299D
:10023E0003300A128A1550260A128A112130F5004F
:10024E007630F400F40B2929F50B29290000033030
:10025E000A128A1550260A128A11F930F400F40B8C
:10026E003629392903300A128A1550260A128A11A4
:10027E0002300A128A1550260A128A1102300A1208
:10028E008A1550260A128A1108300A128A1550262B
:10029E000A128A1100300A128A1550260A128A1181
:1002AE000C300A128A1550260A128A1100300A12D0
:1002BE008A1550260A128A1106300A128A155026FD
:1002CE000A128A110800F401F40A02300A128A1581
:1002DE006D270A128A1183120313D501D601D70195
:1002EE00D801CA295708B1003107453E840083134F
:1002FE000008B200840A0008B3002D08B4003407C9
:10030E00013E84000A128A110D200A128A11B500CC
:10031E000A128A110D200A128A11B6003308360607
:10032E00031D9B2932083506031D9E299F29C429CA
:10033E005708013EBA0058080318013E003EBB00A4
:10034E007530A0003B08A2003A08A10037300A120F
:10035E008A11F8210A128A113730F6000030F700A0
:10036E000A128A15E7260A128A1101308312031324
:10037E00D5070318D60A0030D6070130D707031861
:10038E00D80A0030D80730085802031DD0292F088C
:10039E005702031CD329D429792900305602023082
:1003AE0003195502031CDC29DD29E6294930F60024
:1003BE008030F7000A128A15E7260A128A11831274
:1003CE00031355085604031DED29EE29F7295E3057
:1003DE00F6008030F7000A128A15E7260A128A11F3
:1003EE00080083120313AB002130A600BD2A25306E
:1003FE002C060319032A042A0E2A2B0884002C0823
:10040E00831380000130FF007F08AB07BD2AA701D0
:10041E000130A007FF30200784000A128A110D2038
:10042E000A128A11AC00A300A4012408003A031991
:10043E00212ABD2A2308003A0319CD2A643A03194A
:10044E002C2A0D3A03192C2ABD2A26088400831360
:10045E000008A900840A0008AA000230FF007F08E5
:10046E00A607AA1F3B2A3C2A452A0330FF007F0815
:10047E00A704A909AA09A90A0319AA0AAC01AC0A78
:10048E002C08A30023070D3E84000A128A110D20AA
:10049E000A128A11A4000A128A110D200A128A1158
:1004AE00A50025082A02031D5E2A24082902031826
:1004BE00612A622A632A6D2A0130FF007F08AC0789
:1004CE0005302C06031D6C2A6D2A472A270803398E
:1004DE000319722A732A7C2A2B0884002D30831369
:1004EE0080000130FF007F08AB072C08A800B42A5B
:1004FE000A30F7000030F8002808A30023070D3E4D
:10050E0084000A128A110D200A128A11F0000A12B2
:10051E008A110D200A128A11F1002A08F300290807
:10052E00F2000A128A1529270A128A117108FA0096
:10053E007008F9000A128A15AD260A128A11770878
:10054E00303E83120313AC002B0884002C08831357
:10055E0080000130FF007F08AB07FF30FF007F08EF
:10056E00A807280A031DBC2ABD2A7F2A0130A0072E
:10057E00FF30200784000A128A110D200A128A11F8
:10058E00AC002C08031DCC2ACD2AFE292B08840092
:10059E0083138001080083160313051485140515B3
:1005AE008515831203139F010630831603139F00D4
:1005BE000A128A1103210A128A110A128A15F625C5
:1005CE000A128A11F401F40A01300A128A156D27F3
:1005DE000A128A115430F6008030F7000A128A157A
:1005EE00E7260A128A1183120313051CFF2A002B19
:1005FE003E2B0630F7000030F8005108013EF9009E
:10060E0052080318013E003EFA000A128A15AD2662
:10061E000A128A11780883120313D2007708D100C8
:10062E000A128A1539260A128A110530F000831231
:10063E00031351080A128A1524260A128A11173E2C
:10064E00F6008030F7000A128A15E7260A128A1180
:10065E000D3083120313C400AF30C300B530C20097
:10066E00C20B372BC30B372BC40B372B3E2B8312EE
:10067E000313851C432B442B822B0630F7000030CE
:10068E00F8005108053EF90052080318013E003EDD
:10069E00FA000A128A15AD260A128A1178088312F8
:1006AE000313D2007708D1000A128A1539260A12CE
:1006BE008A110530F0008312031351080A128A15AD
:1006CE0024260A128A11173EF6008030F7000A120D
:1006DE008A15E7260A128A110D3083120313C400FD
:1006EE00AF30C300B530C200C20B7B2BC30B7B2BCC
:1006FE00C40B7B2B822B83120313051D872B882B98
:10070E00BA2B0A128A1539260A128A110530F00000
:10071E008312031351080A128A1524260A128A110B
:10072E00173EF6008030F7000A128A15E7260A12E5
:10073E008A11831203135208BD005108BC000A121D
:10074E008A15B2270A128A110D3083120313C400C0
:10075E00AF30C300B530C200C20BB32BC30BB32BEB
:10076E00C40BB32BBA2B83120313851DBF2BC02BC7
:10077E00FA2A0A128A1539260A128A116830F600E8
:10078E008030F7000A128A15E7260A128A110A1219
:10079E008A11E6230A128A110D3083120313C40044
:1007AE00AF30C300B530C200C20BDB2BC30BDB2B4B
:1007BE00C40BDB2BE22BFA2A0A128A1100280A122A
:1007CE008A156A260A128A110A128A1119250A1224
:1007DE008A1183120313D101D201D301D401D7019F
:1007EE00D80100305802043003195702031C002CA4
:1007FE00012C022C3D2C5708BC003C07453E8400C2
:10080E0083130008BD00840A0008BE005108BF0013
:10081E003F07013E84000A128A110D200A128A1126
:10082E00C0000A128A110D200A128A11C1003E0858
:10083E004106031D242C3D084006031D272C282CA1
:10084E002E2C0130D3070318D40A0030D407013000
:10085E00D7070318D80A0030D807003058020430E2
:10086E0003195702031C3C2C3D2C022C043053065A
:10087E005404031D432C442C712C0A128A1539265C
:10088E000A128A110530F0008312031351080A125E
:10089E008A1524260A128A11173EF6008030F700B8
:1008AE000A128A15E7260A128A11831203135208B6
:1008BE00AE005108AD000430AF000030B0000A1297
:1008CE008A116A210A128A110A128A156A260A12D6
:1008DE008A11182D053051065204031D772C782CE1
:1008EE00792C802C0130D1070318D20A0030D207A0
:1008FE00F42B0A128A156A260A128A110A128A1112
:10090E006A260A128A1183120313D301D401D70166
:10091E00D80100305802063003195702031C982CD8
:10092E00992C9A2CD22C5708BC003C07453E8400CB
:10093E0083130008BD00840A0008BE000530840041
:10094E000A128A110D200A128A11BF000A128A1188
:10095E000D200A128A11C0003E084006031DB92C54
:10096E003D083F06031DBC2CBD2CC32C0130D30704
:10097E000318D40A0030D4070130D7070318D80A59
:10098E000030D80700305802063003195702031CF6
:10099E00D12CD22C9A2C063053065404031DD82C7D
:1009AE00D92C012D0A128A1539260A128A11053000
:1009BE00F0008312031351080A128A1524260A1214
:1009CE008A11173EF6008030F7000A128A15E726C4
:1009DE000A128A11831203135208AE005108AD0099
:1009EE000630AF000030B0000A128A116A210A12D6
:1009FE008A116B2C2E300A128A11B4200A128A1117
:100A0E00F401F40A02300A128A156D270A128A11AD
:100A1E003A30F6008030F7000A128A15E7260A12DD
:100A2E008A11080083120313D301D4018316031312
:100A3E0008138812081188110612861186100610E6
:100A4E000816081A2B2D2F2D831603138814322DFA
:100A5E008316031388108818352D392D831603132A
:100A6E0086163C2D831603138612861A3F2D432DB0
:100A7E00831603130615462D8316031306118312D0
:100A8E000313D701D8010030580202300319570260
:100A9E00031C522D532D542D692ED501D601003035
:100AAE005602023003195502031C5E2D5F2D602D78
:100ABE005A2E5718632D672D8312031388166A2D2D
:100ACE00831203138812881A6D2D712D831203134E
:100ADE008815742D8312031388118819772D7B2D99
:100AEE008312031386157E2D831203138611861926
:100AFE00812D852D831203130614882D8312031363
:100B0E00061055188B2D8F2D831203130817922D57
:100B1E00831203130813081B952D992D83120313AB
:100B2E0008159C2D83120313081108199F2DA32D50
:100B3E00831203130616A62D831203130612061A2A
:100B4E00A92DAD2D831203138614B02D831203131A
:100B5E008610031006190314003003180130F60036
:100B6E00F7017608D3007708D4000A30F000003081
:100B7E00F1004608F3004508F2000A128A118F2090
:100B8E000A128A11710883120313C6007008C50079
:100B9E005308C5070318C60A5408C6070310861A59
:100BAE000314003003180130F600F7017608D30065
:100BBE007708D4000A30F0000030F1004808F30046
:100BCE004708F2000A128A118F200A128A11710840
:100BDE0083120313C8007008C7005308C707031811
:100BEE00C80A5408C80703108818031400300318E5
:100BFE000130F600F7017608D3007708D4000A30EA
:100C0E00F0000030F1004A08F3004908F2000A1221
:100C1E008A118F200A128A11710883120313CA00D7
:100C2E007008C9005308C9070318CA0A5408CA072E
:100C3E000310081A0314003003180130F600F701F0
:100C4E007608D3007708D4000A30F0000030F100A7
:100C5E004C08F3004B08F2000A128A118F200A1278
:100C6E008A11710883120313CC007008CB0053084D
:100C7E00CB070318CC0A5408CC070330F8008A308F
:100C8E00F7005530F600F60B4A2EF70B4A2EF80BEE
:100C9E004A2E512E013083120313D5070318D60A9C
:100CAE000030D607562D0130D7070318D80A00306A
:100CBE00D80700305802023003195702031C682E61
:100CCE00692E542D080083120313D301D401831609
:100CDE0003130813081208110612061106108816BF
:100CEE00881A7A2E7E2E831603138815812E83166C
:100CFE00031388118819842E882E831603138814E3
:100D0E008B2E83160313881088188E2E922E831620
:100D1E0003138616952E831603138612861A982EA3
:100D2E009C2E8316031386159F2E8316031386118E
:100D3E008619A22EA62E831603138614A92E8316A9
:100D4E000313861083120313D701D8010030580203
:100D5E00023003195702031CB52EB62EB72EE72FFD
:100D6E005718BA2EBE2E831203130817C12E8312E4
:100D7E0003130813081BC42EC82E83120313081660
:100D8E00CB2E831203130812081ACE2ED22E8312E4
:100D9E0003130815D52E8312031308110819D82E24
:100DAE00DC2E831203130616DF2E83120313061294
:100DBE00061AE22EE62E831203130615E92E83126F
:100DCE00031306110619EC2EF02E831203130614CC
:100DDE00F32E83120313061003108618031400302B
:100DEE0003180130F600F7017608D3007708D40017
:100DFE000A30F0000030F1004608F3004508F2001A
:100E0E000A128A118F200A128A1171088312031393
:100E1E00C6007008C5005308C5070318C60A540853
:100E2E00C607031086190314003003180130F600AC
:100E3E00F7017608D3007708D4000A30F0000030AE
:100E4E00F1004808F3004708F2000A128A118F20B9
:100E5E000A128A11710883120313C8007008C700A2
:100E6E005308C7070318C80A5408C8070310861A80
:100E7E000314003003180130F600F7017608D30092
:100E8E007708D4000A30F0000030F1004A08F30071
:100E9E004908F2000A128A118F200A128A1171086B
:100EAE0083120313CA007008C9005308C907031838
:100EBE00CA0A5408CA07031088180314003003180E
:100ECE000130F600F7017608D3007708D4000A3017
:100EDE00F0000030F1004C08F3004B08F2000A124B
:100EEE008A118F200A128A11710883120313CC0003
:100EFE007008CB005308CB070318CC0A5408CC0754
:100F0E00031088190314003003180130F600F7019E
:100F1E007608D3007708D4000A30F0000030F100D4
:100F2E004E08F3004D08F2000A128A118F200A12A1
:100F3E008A11710883120313CE007008CD00530876
:100F4E00CD070318CE0A5408CE070310881A0314CF
:100F5E00003003180130F600F7017608D300770849
:100F6E00D4000A30F0000030F1005008F3004F08B2
:100F7E00F2000A128A118F200A128A117108831246
:100F8E000313D0007008CF005308CF070318D00A00
:100F9E005408D0070330F8008A30F7005530F600B9
:100FAE00F60BD72FF70BD72FF80BD72FDE2F0130DD
:100FBE0083120313D7070318D80A0030D807AD2EB3
:100FCE00080083135330FD000E30FE000330FF0087
:100FDE00453084000A128A1515260A128A11D30189
:100FEE00D401D501D601D701D80183010A128A1185
:020FFE00D22AF5
:101BEC0000300A128A1550260A128A1501300A1280
:101BFC008A1550260A128A15080001340034013463
:101C0C000034013400340134003401340034013424
:101C1C000034053400347E088A007F0882000A12E2
:101C2C008A1511260A128A158000840A04087D067A
:101C3C0003190034FF0A0319FE0A152EF200F101F4
:101C4C00721C292E2A2E2E2E7008FF007F08F107F9
:101C5C000310F00D0310F20C7208031D362E372EF4
:101C6C00262E710808000A128A15F6250A128A1502
:101C7C00F401F40A01300A128A156D270A128A152A
:101C8C007030F6008030F7000A128A15E7260A1227
:101C9C008A150800F30083120313071373080A1242
:101CAC008A158B260A128A158312031387170430A0
:101CBC00F2003D30F100F10B612EF20B612E662E1D
:101CCC00831203138713080083120313D701D8015F
:101CDC0000305802063003195702031C762E772E5B
:101CEC00782E8A2E5708F0007007453E840001308C
:101CFC0083138000840A003080000130D70703185A
:101D0C00D80A0030D8076E2E0800F000701C8F2EF9
:101D1C00902E942E831203130715972E8312031300
:101D2C000711F01C9A2E9B2E9D2E87159E2E871127
:101D3C00701DA12EA22EA42E0716A52E0712F01D83
:101D4C00A82EA92EAB2E8716AC2E8712080077086A
:101D5C0078040319B22EB32EE22EFB01FB0AC12E1E
:101D6C0001300310F70DF80DFF3E031DB72E0130A7
:101D7C00FF007F08FB07F81FC42EC52EB62E78086F
:101D8C007A02031DCB2E77087902031CCE2ECF2EA0
:101D9C00D52E7708F9027808031CFA03FA020130F1
:101DAC000310F80CF70CFF3E031DD62E0130FB027E
:101DBC00031DE12EE22EC52E7A08F8007908F700F3
:101DCC000800FB01FC010C2F7B087607F900770853
:101DDC00F8000318F80AFB1FF42EF8037808FA0031
:101DEC007A0883120313FF00790884000A128A11FF
:101DFC0003200A128A150A128A11B4200A128A15B3
:101E0C000130FB070318FC0A0030FC077B0876073F
:101E1C00F9007708F8000318F80AFB1F162FF803CF
:101E2C007808FA007A0883120313FF0079088400FB
:101E3C000A128A1103200A128A15003A031D272F51
:101E4C00282FEA2E0800F401F5017008710403191B
:101E5C00302F312F682FF601F60A3F2F0130031077
:101E6C00F00DF10DFF3E031D352F0130FF007F08F3
:101E7C00F607F11F422F432F342F01300310F40DBE
:101E8C00F50DFF3E031D442F71087302031D502FE7
:101E9C0070087202031C532F542F5B2F7008F20230
:101EAC007108031CF303F302741401300310F10CDA
:101EBC00F00CFF3E031D5C2F0130F602031D672F53
:101ECC00682F432F7508F1007408F0000800F60025
:101EDC007603031D722F732F8F2F74087F3EF9002A
:101EEC007908F50004300310F50CFF3E031D792F23
:101EFC007508F80079080F39F70078080A128A1566
:101F0C0050260A128A1577080A128A1550260A12C8
:101F1C008A1502307606031D942F952FB12F740865
:101F2C00BF3EF9007908F50004300310F50CFF3EB4
:101F3C00031D9B2F7508F80079080F39F7007808F6
:101F4C000A128A1550260A128A1577080A128A155F
:101F5C0050260A128A1508000030831203133D0222
:101F6C00063003193C020318BC2FBD2FDD2F0230A5
:101F7C003C063D040319C32FC42FDD2F0A128A110E
:101F8C0019250A128A15831203133D08AE003C086A
:101F9C00AD000430AF000030B0000A128A116A2183
:101FAC000A128A150A128A156A260A128A15023032
:101FBC00831203133C063D04031DE52FE62FFF2F70
:101FCC000A128A116A260A128A15831203133D0813
:101FDC00AE003C08AD000630AF000030B0000A1275
:101FEC008A116A210A128A150A128A156A260A129D
:041FFC008A1508003A
:02400E007A3FF7
:00000001FF
