:03000000020E49A4
:0C0E4900787FE4F6D8FD75811E020E9043
:08106E00021B0000021D000638
:100ED500D2A4D2A5D2A61210271210011210D41234
:100EE500108920A417E51C2401FFE4351BFEAC1D69
:100EF500AD1E120DF48C1B8D1C12100120A51812AD
:100F050010E2E51C24FFFFE51B34FFFEAC1DAD1E02
:100F1500120DF48C1B8D1C20A6C5E51B70C1E51CAC
:100F250014601514601714601914601B14601D24D7
:100F35000570AC120BF080A7120C8780A21209FA7B
:100F4500809D120B568098120D1E8093120AB78051
:010F55008E0D
:100F97003120322033203420474F4F44004943202B
:100FA70049532042414400312000322000332000C1
:100FB700342000474F4F4400312032203320342063
:0F0FC70035203620474F4F44003520003620009C
:10107600010800010900010A00010B00010C000132
:021086000D005B
:10108900C297C296C295C294C293C292C291C290AB
:09109900C2A3C2A2C2A1C2A0229E
:0E10D400E4F50DF50CF50BF50AF509F508220B
:1009FA001210D4E4F50EF50F121089E50E450F24F6
:100A0A00FF92A392A19297929492929290D2A2D29A
:100A1A00A0D296D295D293D2917F0A7E00120F77F6
:100A2A00A291309001B350047F0180027F00EF252C
:100A3A0008F508A293309201B350047F0180027F27
:100A4A0000EF2509F509A295309401B350047F01FE
:100A5A0080027F00EF250AF50AA296309701B3506B
:100A6A00047F0180027F00EF250BF50BA2A030A1C5
:100A7A0001B350047F0180027F00EF250CF50CA220
:100A8A00A230A301B350047F0180027F00EF250D3D
:100A9A00F50D050FE50F7002050ED39401E50E94CE
:0D0AAA00005003020A027F067E00020800D1
:100B56001210D41210E2E4F50EF50F121089E50E0C
:100B6600450F24FF92A392A092939290E4F510F57C
:100B760011E510451124FF92A2929792949291D278
:100B8600A1D296D295D2927F0A7E00120F77A291B9
:100B96008290309201B340020508A2948293309568
:100BA60001B340020509A29782A0309601B3400224
:100BB600050AA2A282A330A101B34002050B0511CA
:100BC600E51170020510D39401E510940040A205CA
:100BD6000FE50F7002050ED39401E50E9400500345
:0A0BE600020B617F047E000208008C
:100BF0001210D4E4F50EF50FE4F510F5111210897A
:100C0000E50E450F24FF92A392A092939290E510D7
:100C1000451124FF92A2929792949291D2A1D296DA
:100C2000D295D2927F0A7E00120F77A291829030E5
:100C30009201B350020508A2948293309501B350FB
:100C4000020509A29782A0309601B35002050AA2BC
:100C5000A282A330A101B35002050B0511E511706A
:100C6000020510D39401E51094004091050FE50FA3
:100C70007002050ED39401E50E94005003020BF8A8
:070C80007F047E0002080062
:100C87001210D4E4F50EF50FE4F510F511121089E2
:100C9700E50E450F24FF92A2929792949291E51048
:100CA700451124FF92A1929692959292D2A3D2A037
:100CB700D293D2907F0A7E00120F77A29272913060
:100CC7009001B350020508A2947295309301B35076
:100CD700020509A297729630A001B35002050AA235
:100CE700A272A130A301B35002050B0511E51170E3
:100CF700020510D39401E51094004091050FE50F0C
:100D07007002050ED39401E50E94005003020C8F78
:070D17007F047E00020800CA
:100D1E001210D4E4F50EF50FE4F510F5111210894A
:100D2E00E50E450F24FF92A392A092939290E510A8
:100D3E00451124FF92A2929792949291D2A1D296AB
:100D4E00D295D2927F0A7E00120F77A291729030C6
:100D5E009201B340020508A2947293309501B340FC
:100D6E00020509A29772A0309601B34002050AA2AD
:100D7E00A272A330A101B34002050B0511E511705B
:100D8E00020510D39401E51094004091050FE50F74
:100D9E007002050ED39401E50E94005003020D2649
:070DAE007F047E0002080033
:100AB7001210D4E4F50EF50FE4F510F511121089B4
:100AC700E50E450F24FF92A392A092939290E51012
:100AD700451124FF92A2929792949291D2A1D29615
:100AE700D295D2927F0A7E00120F77A291309001A1
:100AF700B3309201B340020508A294309301B3309A
:100B07009501B340020509A29730A001B3309601C1
:100B1700B34002050AA2A230A301B330A101B3403A
:100B270002050B0511E51170020510D39401E510BC
:100B370094004089050FE50F7002050ED39401E577
:0F0B47000E94005003020ABF7F047E00020800D4
:100800008E148F151210E2E51460030209F9E51544
:1008100024FA70030208E1240260030209F9E509E1
:10082000B404047F0180027F00E508B404047E0163
:1008300080027E00EE5FFFE50AB404047E018002C0
:100840007E00EE5FFFE50BB404047E0180027E00B3
:10085000EE5F60097BFF7A0F79970209F6E509647C
:100860000460047F0180027F00E508640460047E68
:100870000180027E00EE5FFFE50A640460047E01F1
:1008800080027E00EE5FFFE50B640460047E018061
:10089000027E00EE5F60097BFF7A0F79A40209F601
:1008A000E508B404097BFF7A0F79AE120FD6E5098B
:1008B000B404097BFF7A0F79B1120FD6E50AB404AC
:1008C000097BFF7A0F79B4120FD6E50BB404097BCC
:1008D000FF7A0F79B7120FD67BFF7A0F79BA020928
:1008E000F6E509B402047F0180027F00E508B40246
:1008F000047E0180027E00EE5FFFE50AB402047E02
:100900000180027E00EE5FFFE50BB402047E0180F1
:10091000027E00EE5FFFE50CB402047E0180027EE1
:1009200000EE5FFFE50DB402047E0180027E00EE62
:100930005F60097BFF7A0F79BF0209F6E50964025F
:1009400060047F0180027F00E508640260047E018C
:1009500080027E00EE5FFFE50A640260047E018093
:10096000027E00EE5FFFE50B640260047E01800200
:100970007E00EE5FFFE50C640260047E0180027E73
:1009800000EE5FFFE50D640260047E0180027E00E0
:10099000EE5F60087BFF7A0F79A4805AE508B40205
:1009A000097BFF7A0F79AE120FD6E509B402097BF5
:1009B000FF7A0F79B1120FD6E50AB402097BFF7AEC
:1009C0000F79B4120FD6E50BB402097BFF7A0F79C9
:1009D000B7120FD6E50CB402097BFF7A0F79D0125B
:1009E0000FD6E50DB402097BFF7A0F79D3120FD62B
:0A09F0007BFF7A0F79BA120FD622AE
:10104C0049435F00373430300037343032003734A6
:10105C0030340037343038003734333200373438DA
:02106C0036004C
:100F5600C281D2827F017E00120F77C2820F120FEA
:100F660077E9C454F0FFE580540F4FF580D2827FB5
:010F76000179
:100F7700E4FDFCC3ED9FEC9E5015E4FBFA0BBB00B0
:0F0F8700010ABA04F8BB60F50DBD00010C80E44F
:010F96002238
:101001007F011210A27BFF7A10794C120FD6AE1B12
:10101100AF1C7C007D05120DE274502FF974103E57
:06102100FA7BFF020FD66E
:0D10E2007F011210A21210017FC00210A2A7
:1010A200A907E954F0FFE580540F4FF580C2801282
:0910B2000F56C2827F05020F7780
:1010BB00A907E954F0FFE580540F4FF580D2801259
:0910CB000F56C2827F05020F7767
:060FD6008B168A17891832
:100FDC00E4F519F51AAB16AA17A918851A82851902
:100FEC0083120DB5FF600D1210BB051AE51A70E5E2
:040FFC00051980E172
:0110000022CD
:101027007F147E00120F777F021210A27F28121002
:10103700A27F0C1210A27F061210A27F011210A22B
:051047007F800210A2F1
:100E5500020ED5E493A3F8E493A34003F68001F2D0
:100E650008DFF48029E493A3F85407240CC8C3339E
:100E7500C4540F4420C8834004F456800146F6DF6D
:100E8500E4800B010204081020408090106EE47E7F
:100E9500019360BCA3FF543F30E509541FFEE49362
:100EA500A360010ECF54C025E060A840B8E493A329
:100EB500FAE493A3F8E493A3C8C582C8CAC583CA54
:100EC500F0A3C8C582C8CAC583CADFE9DEE780BE0C
:011088000067
:100DB500BB010CE58229F582E5833AF583E02250F3
:100DC50006E92582F8E622BBFE06E92582F8E2223D
:0D0DD500E58229F582E5833AF583E4932257
:100DE200EF8DF0A4A8F0CF8CF0A428CE8DF0A42E25
:020DF200FE22DF
:100DF400BC000BBE0029EF8DF084FFADF022E4CCE3
:100E0400F875F008EF2FFFEE33FEEC33FCEE9DECAB
:100E1400984005FCEE9DFE0FD5F0E9E4CEFD22EDF1
:100E2400F8F5F0EE8420D21CFEADF075F008EF2F3B
:100E3400FFED33FD4007985006D5F0F222C398FD2C
:050E44000FD5F0EA22C9
:00000001FF
